S0130000496E7075744F75747075742E7372656370
S11300000C942A000C9434000C9434000C943400A6
S11300100C9434000C9434000C9434000C9434008C
S11300200C9434000C9434000C9434000C9434007C
S11300300C9434000C9434000C9434000C9434006C
S11300400C9434000C9434000C9434000C9434005C
S11300500C94340011241FBECFE5D4E0DEBFCDBF25
S11300600E9436000C943E000C9400001ABA8FEFE4
S11300708BBB87BB18BA89B388BBFDCFF894FFCF7D
S9030000FC
