:100000000C942A000C9434000C9434000C943400AA
:100010000C9434000C9434000C9434000C94340090
:100020000C9434000C9434000C9434000C94340080
:100030000C9434000C9434000C9434000C94340070
:100040000C9434000C9434000C9434000C94340060
:100050000C94340011241FBECFE5D4E0DEBFCDBF29
:100060000E94B2000C94C3000C940000969A000009
:1000700000009698089583EF91E00197F1F700C092
:1000800000000895CF93C82F82B39C2F92959F7044
:10009000807F892B82BB0E94360082B3CF70807F25
:1000A000C82BC2BB0E943600CF910895CF93C82FB2
:1000B0000E943B0094988C2F0E944200CF9108959B
:1000C00094980E94420080E18A95F1F700C008955B
:1000D000949892B382958F70907F982B92BB0E94D8
:1000E000360080E18A95F1F700C00895CF93C82FBC
:1000F0000E943B00949A8C2F0E944200CF91089559
:1001000087E893E10197F1F700C0000080E30E94C7
:10011000680081EE94E00197F1F700C0000080E3F1
:100120000E94680092E39A95F1F780E30E946800CC
:1001300081EE94E00197F1F700C0000080E20E9498
:10014000680090E19A95F1F700C088E20E94600093
:1001500088E00E94560081E00E94560086E00E94DE
:10016000560008958FEF81BB0E9480008EE40E94AC
:1001700076008EE40E9476008EE40E9476008EE483
:0A0180000E947600FFCFF894FFCF35
:00000001FF
