:100000000C942A000C9447000C9447000C94470071
:100010000C9447000C9447000C9454010C94470036
:100020000C9447000C9447000C9447000C94470034
:100030000C9447000C9447000C9447000C94470024
:100040000C9447000C9447000C9447000C94470014
:100050000C94470011241FBECFE5D4E0DEBFCDBF16
:1000600010E0A0E6B0E0ECE5F4E002C005900D92EF
:10007000A236B107D9F720E0A2E6B0E001C01D9298
:10008000A636B207E1F70E9442010C942C020C94B0
:100090000000D898D99A8FE08ABBDA9A000089B319
:1000A000DA980000DA9A000099B3DA989FEF9ABBC9
:1000B00083FB882780F908952BB330E1839FC0012B
:1000C00011242F70822B8BBBDA9A0000DA98000083
:1000D0000895CF93C82F662311F0D89801C0D89AFD
:1000E000D9988C2F82958F700E945C008C2F8F7016
:1000F0000E945C0086EA8A95F1F700C0CF910895CE
:10010000CF93C82F0E9449008111FCCF61E08C2F52
:100110000E946900CF910895CF93C82F0E94490093
:100120008111FCCF60E08C2F0E946900CF9108956F
:100130008FEF8ABBD898D99885EA9EE00197F1F7AE
:1001400000C0000083E00E945C0081EE94E0019713
:10015000F1F700C0000083E00E945C0092E39A95F2
:10016000F1F783E00E945C0081EE94E00197F1F7E3
:1001700000C0000082E00E945C009DE09A95F1F7CB
:10018000000088E20E94800088E00E9480008CE0ED
:100190000E94800086E00E94800081E00E94800032
:1001A00083EC99E00197F1F700C0000008958130D9
:1001B00011F080E001C080E46058860F0E9480004A
:1001C0000895CF93DF93EC018881882331F0219645
:1001D0000E948C0089918111FBCFDF91CF9108950E
:1001E000CF93DF93CDB7DEB72A970FB6F894DEBF73
:1001F0000FBECDBF4AE050E0BE016F5F7F4F0E944F
:10020000FB01CE0101960E94E1002A960FB6F894F8
:10021000DEBF0FBECDBFDF91CF910895CF93DF93A7
:10022000EA010E94D700CE010E94E100DF91CF9148
:100230000895CF93DF93EA010E94D700CE010E9478
:10024000F000DF91CF9108950F931F93CF93DF9329
:10025000042FD22F481788F0C62F182F6C2F812F0C
:100260000E94D700DC1730F080E20E948C00CF5F44
:10027000DC17D0F71F5F011788F7DF91CF911F912F
:100280000F910895B89A8EB588608EBD83E294EF81
:100290009BBD8ABD789489B7806189BF8EB5826025
:1002A0008EBD0E949800FFCF1F920F920FB60F9243
:1002B00011240F931F932F933F934F935F936F934B
:1002C0007F938F939F93AF93BF93CF93DF93EF93DE
:1002D000FF9398B381E0892788BB28E040E060E085
:1002E00080E00E9424018091640090916500019655
:1002F00090936500809364009695879560E17EE019
:100300000E94DB01AB018C019C01A9E8B8E80E94C6
:10031000EF01EC01D695C795D295C295CF70CD2748
:10032000DF70CD272CE32C9FC0012D9F900D112451
:10033000E801C81BD90BD0936300C093620060E052
:1003400080E00E94190140E650E062E080E00E94F7
:100350000E019801A9E8B8E80E94EF01AC0156959A
:100360004795529542954F7045275F70452763E04A
:1003700080E00E94190140E650E065E080E00E94C4
:100380000E01AE0166E080E00E941901FF91EF913D
:10039000DF91CF91BF91AF919F918F917F916F919D
:1003A0005F914F913F912F911F910F910F900FBE31
:1003B0000F901F901895AA1BBB1B51E107C0AA1FE5
:1003C000BB1FA617B70710F0A61BB70B881F991FF6
:1003D0005A95A9F780959095BC01CD010895A29FEB
:1003E000B001B39FC001A39F01D0B29F700D811DCA
:1003F0001124911D0895FB019F01E8944230C4F03F
:100400004532B4F44A3029F497FB1EF49095819557
:100410009F4F642F77270E94DB01805D8A330CF0A9
:10042000895D8193CB010097A1F716F45DE25193AA
:100430001082C9010C941C02DC01FC01672F719130
:100440007723E1F7329704C07C916D9370836291BA
:0C045000AE17BF07C8F30895F894FFCF63
:02045C003A0064
:00000001FF
