S0100000426C696E6B4C45442E737265634F
S11300000C942A000C9434000C9434000C943400A6
S11300100C9434000C9434000C9434000C9434008C
S11300200C9434000C9434000C9434000C9434007C
S11300300C9434000C9434000C9434000C9434006C
S11300400C9434000C9434000C9434000C9434005C
S11300500C94340011241FBECFE5D4E0DEBFCDBF25
S11300600E9436000C9444000C9400008FEF87BB70
S113007085E588BB8FE493EC0197F1F700C000009D
S10F008088B3809588BBF6CFF894FFCFBE
S9030000FC
