:100000000C942A000C9436000C9434000C943400A8
:100010000C9434000C9434000C9434000C94340090
:100020000C9434000C9434000C9434000C94340080
:100030000C9434000C9434000C9434000C94340070
:100040000C9434000C9434000C9434000C94340060
:100050000C94340011241FBECFE5D4E0DEBFCDBF29
:100060000E9448000C9455000C9400001F920F92BF
:100070000FB60F9211248F939F939BB381E0892732
:100080008BBB9F918F910F900FBE0F901F90189573
:100090008A9A929A8BB780648BBF85B7836085BF3D
:0E00A000789481E08ABB1BBAFFCFF894FFCFA3
:00000001FF
